{
  "contractName": "Chunk",
  "abi": [
    {
      "constant": true,
      "inputs": [
        {
          "internalType": "uint8",
          "name": "",
          "type": "uint8"
        },
        {
          "internalType": "uint256",
          "name": "",
          "type": "uint256"
        }
      ],
      "name": "arr",
      "outputs": [
        {
          "internalType": "uint16",
          "name": "",
          "type": "uint16"
        }
      ],
      "payable": false,
      "stateMutability": "view",
      "type": "function"
    },
    {
      "constant": false,
      "inputs": [
        {
          "components": [
            {
              "internalType": "uint16",
              "name": "scale_significand",
              "type": "uint16"
            },
            {
              "internalType": "int8",
              "name": "scale_exponent",
              "type": "int8"
            },
            {
              "internalType": "uint8",
              "name": "zero_point",
              "type": "uint8"
            }
          ],
          "internalType": "struct Chunk.Codebook",
          "name": "book",
          "type": "tuple"
        }
      ],
      "name": "upload_book",
      "outputs": [],
      "payable": false,
      "stateMutability": "nonpayable",
      "type": "function"
    },
    {
      "constant": false,
      "inputs": [
        {
          "internalType": "uint8",
          "name": "key",
          "type": "uint8"
        },
        {
          "internalType": "uint16[]",
          "name": "value",
          "type": "uint16[]"
        }
      ],
      "name": "upload_arr",
      "outputs": [],
      "payable": false,
      "stateMutability": "nonpayable",
      "type": "function"
    },
    {
      "constant": true,
      "inputs": [],
      "name": "download_chunk",
      "outputs": [
        {
          "components": [
            {
              "internalType": "uint16",
              "name": "scale_significand",
              "type": "uint16"
            },
            {
              "internalType": "int8",
              "name": "scale_exponent",
              "type": "int8"
            },
            {
              "internalType": "uint8",
              "name": "zero_point",
              "type": "uint8"
            }
          ],
          "internalType": "struct Chunk.Codebook",
          "name": "book",
          "type": "tuple"
        }
      ],
      "payable": false,
      "stateMutability": "view",
      "type": "function"
    }
  ],
  "bytecode": "0x608060405234801561001057600080fd5b50610700806100206000396000f3fe608060405234801561001057600080fd5b506004361061004c5760003560e01c80635af6c24814610051578063763ccc3f1461006f5780639925b7cf1461008b57806399404b41146100bb575b600080fd5b6100596100d7565b60405161006691906105a4565b60405180910390f35b61008960048036036100849190810190610496565b61014b565b005b6100a560048036036100a091908101906104ea565b61017c565b6040516100b291906105bf565b60405180910390f35b6100d560048036036100d0919081019061046d565b6101c0565b005b6100df610231565b60016040518060600160405290816000820160009054906101000a900461ffff1661ffff1661ffff1681526020016000820160029054906101000a900460000b60000b60000b81526020016000820160039054906101000a900460ff1660ff1660ff1681525050905090565b806000808460ff1660ff168152602001908152602001600020908051906020019061017792919061025b565b505050565b6000602052816000526040600020818154811061019557fe5b9060005260206000209060109182820401919006600202915091509054906101000a900461ffff1681565b80600160008201518160000160006101000a81548161ffff021916908361ffff16021790555060208201518160000160026101000a81548160ff021916908360000b60ff16021790555060408201518160000160036101000a81548160ff021916908360ff16021790555090505050565b6040518060600160405280600061ffff1681526020016000800b8152602001600060ff1681525090565b82805482825590600052602060002090600f016010900481019282156102f45791602002820160005b838211156102c457835183826101000a81548161ffff021916908361ffff1602179055509260200192600201602081600101049283019260010302610284565b80156102f25782816101000a81549061ffff02191690556002016020816001010492830192600103026102c4565b505b5090506103019190610305565b5090565b61033391905b8082111561032f57600081816101000a81549061ffff02191690555060010161030b565b5090565b90565b600082601f83011261034757600080fd5b813561035a61035582610607565b6105da565b9150818183526020840193506020810190508385602084028201111561037f57600080fd5b60005b838110156103af5781610395888261042e565b845260208401935060208301925050600181019050610382565b5050505092915050565b6000813590506103c881610661565b92915050565b6000606082840312156103e057600080fd5b6103ea60606105da565b905060006103fa8482850161042e565b600083015250602061040e848285016103b9565b602083015250604061042284828501610458565b60408301525092915050565b60008135905061043d81610678565b92915050565b6000813590506104528161068f565b92915050565b600081359050610467816106a6565b92915050565b60006060828403121561047f57600080fd5b600061048d848285016103ce565b91505092915050565b600080604083850312156104a957600080fd5b60006104b785828601610458565b925050602083013567ffffffffffffffff8111156104d457600080fd5b6104e085828601610336565b9150509250929050565b600080604083850312156104fd57600080fd5b600061050b85828601610458565b925050602061051c85828601610443565b9150509250929050565b61052f8161062f565b82525050565b60608201600082015161054b6000850182610577565b50602082015161055e6020850182610526565b5060408201516105716040850182610595565b50505050565b6105808161063c565b82525050565b61058f8161063c565b82525050565b61059e81610654565b82525050565b60006060820190506105b96000830184610535565b92915050565b60006020820190506105d46000830184610586565b92915050565b6000604051905081810181811067ffffffffffffffff821117156105fd57600080fd5b8060405250919050565b600067ffffffffffffffff82111561061e57600080fd5b602082029050602081019050919050565b60008160000b9050919050565b600061ffff82169050919050565b6000819050919050565b600060ff82169050919050565b61066a8161062f565b811461067557600080fd5b50565b6106818161063c565b811461068c57600080fd5b50565b6106988161064a565b81146106a357600080fd5b50565b6106af81610654565b81146106ba57600080fd5b5056fea365627a7a72315820a1b0edc9c62faedaaed2d60246b99e01666f4c7e9243db2fbcea03801947cb146c6578706572696d656e74616cf564736f6c63430005100040",
  "source": "// SPDX-License-Identifier: MIT\r\npragma experimental ABIEncoderV2;\r\n\r\ncontract Chunk {\r\n    \r\n    struct Codebook {\r\n        uint16 scale_significand;\r\n        int8 scale_exponent;\r\n        uint8 zero_point;\r\n    }\r\n    mapping(uint8 => uint16[]) public arr;\r\n\r\n\r\n    // mapping(uint16 => uint16[]) public chunks;\r\n    Codebook codebook;\r\n    \r\n\r\n    function upload_book(Codebook memory book) public {\r\n        codebook = book;\r\n    }\r\n\r\n    function upload_arr(uint8 key, uint16[] memory value) public {\r\n        arr[key] = value;\r\n    }\r\n    \r\n    function download_chunk() public view returns (Codebook memory book) {\r\n        return codebook;\r\n    }\r\n}",
  "sourcePath": "C:/Users/User/Development/pytorch/graduate project/FLwithBC/contracts/chunk.sol",
  "compiler": {
    "name": "solc",
    "version": "0.5.16+commit.9c3226ce.Emscripten.clang"
  },
  "schemaVersion": "3.3.3",
  "updatedAt": "2021-01-25T06:22:41.959Z",
  "devdoc": {
    "methods": {}
  },
  "userdoc": {
    "methods": {}
  }
}